{
  "_format": "hh-sol-artifact-1",
  "contractName": "LidoMock",
  "sourceName": "contracts/lidoToken.sol",
  "abi": [
    {
      "inputs": [],
      "stateMutability": "nonpayable",
      "type": "constructor"
    },
    {
      "anonymous": false,
      "inputs": [
        {
          "indexed": true,
          "internalType": "address",
          "name": "owner",
          "type": "address"
        },
        {
          "indexed": true,
          "internalType": "address",
          "name": "spender",
          "type": "address"
        },
        {
          "indexed": false,
          "internalType": "uint256",
          "name": "value",
          "type": "uint256"
        }
      ],
      "name": "Approval",
      "type": "event"
    },
    {
      "anonymous": false,
      "inputs": [
        {
          "indexed": true,
          "internalType": "address",
          "name": "from",
          "type": "address"
        },
        {
          "indexed": true,
          "internalType": "address",
          "name": "to",
          "type": "address"
        },
        {
          "indexed": false,
          "internalType": "uint256",
          "name": "value",
          "type": "uint256"
        }
      ],
      "name": "Transfer",
      "type": "event"
    },
    {
      "inputs": [
        {
          "internalType": "address",
          "name": "owner",
          "type": "address"
        },
        {
          "internalType": "address",
          "name": "spender",
          "type": "address"
        }
      ],
      "name": "allowance",
      "outputs": [
        {
          "internalType": "uint256",
          "name": "",
          "type": "uint256"
        }
      ],
      "stateMutability": "view",
      "type": "function"
    },
    {
      "inputs": [
        {
          "internalType": "address",
          "name": "spender",
          "type": "address"
        },
        {
          "internalType": "uint256",
          "name": "amount",
          "type": "uint256"
        }
      ],
      "name": "approve",
      "outputs": [
        {
          "internalType": "bool",
          "name": "",
          "type": "bool"
        }
      ],
      "stateMutability": "nonpayable",
      "type": "function"
    },
    {
      "inputs": [
        {
          "internalType": "address",
          "name": "account",
          "type": "address"
        }
      ],
      "name": "balanceOf",
      "outputs": [
        {
          "internalType": "uint256",
          "name": "",
          "type": "uint256"
        }
      ],
      "stateMutability": "view",
      "type": "function"
    },
    {
      "inputs": [],
      "name": "decimals",
      "outputs": [
        {
          "internalType": "uint8",
          "name": "",
          "type": "uint8"
        }
      ],
      "stateMutability": "view",
      "type": "function"
    },
    {
      "inputs": [
        {
          "internalType": "address",
          "name": "spender",
          "type": "address"
        },
        {
          "internalType": "uint256",
          "name": "subtractedValue",
          "type": "uint256"
        }
      ],
      "name": "decreaseAllowance",
      "outputs": [
        {
          "internalType": "bool",
          "name": "",
          "type": "bool"
        }
      ],
      "stateMutability": "nonpayable",
      "type": "function"
    },
    {
      "inputs": [
        {
          "internalType": "address",
          "name": "spender",
          "type": "address"
        },
        {
          "internalType": "uint256",
          "name": "addedValue",
          "type": "uint256"
        }
      ],
      "name": "increaseAllowance",
      "outputs": [
        {
          "internalType": "bool",
          "name": "",
          "type": "bool"
        }
      ],
      "stateMutability": "nonpayable",
      "type": "function"
    },
    {
      "inputs": [],
      "name": "name",
      "outputs": [
        {
          "internalType": "string",
          "name": "",
          "type": "string"
        }
      ],
      "stateMutability": "view",
      "type": "function"
    },
    {
      "inputs": [
        {
          "internalType": "address",
          "name": "_referral",
          "type": "address"
        }
      ],
      "name": "submit",
      "outputs": [
        {
          "internalType": "uint256",
          "name": "",
          "type": "uint256"
        }
      ],
      "stateMutability": "payable",
      "type": "function"
    },
    {
      "inputs": [],
      "name": "symbol",
      "outputs": [
        {
          "internalType": "string",
          "name": "",
          "type": "string"
        }
      ],
      "stateMutability": "view",
      "type": "function"
    },
    {
      "inputs": [],
      "name": "totalSupply",
      "outputs": [
        {
          "internalType": "uint256",
          "name": "",
          "type": "uint256"
        }
      ],
      "stateMutability": "view",
      "type": "function"
    },
    {
      "inputs": [
        {
          "internalType": "address",
          "name": "to",
          "type": "address"
        },
        {
          "internalType": "uint256",
          "name": "amount",
          "type": "uint256"
        }
      ],
      "name": "transfer",
      "outputs": [
        {
          "internalType": "bool",
          "name": "",
          "type": "bool"
        }
      ],
      "stateMutability": "nonpayable",
      "type": "function"
    },
    {
      "inputs": [
        {
          "internalType": "address",
          "name": "from",
          "type": "address"
        },
        {
          "internalType": "address",
          "name": "to",
          "type": "address"
        },
        {
          "internalType": "uint256",
          "name": "amount",
          "type": "uint256"
        }
      ],
      "name": "transferFrom",
      "outputs": [
        {
          "internalType": "bool",
          "name": "",
          "type": "bool"
        }
      ],
      "stateMutability": "nonpayable",
      "type": "function"
    }
  ],
  "bytecode": "0x60806040523480156200001157600080fd5b506040518060400160405280600a81526020017f4c69646f207374455448000000000000000000000000000000000000000000008152506040518060400160405280600581526020017f737445544800000000000000000000000000000000000000000000000000000081525081600390816200008f919062000324565b508060049081620000a1919062000324565b5050506200040b565b600081519050919050565b7f4e487b7100000000000000000000000000000000000000000000000000000000600052604160045260246000fd5b7f4e487b7100000000000000000000000000000000000000000000000000000000600052602260045260246000fd5b600060028204905060018216806200012c57607f821691505b602082108103620001425762000141620000e4565b5b50919050565b60008190508160005260206000209050919050565b60006020601f8301049050919050565b600082821b905092915050565b600060088302620001ac7fffffffffffffffffffffffffffffffffffffffffffffffffffffffffffffffff826200016d565b620001b886836200016d565b95508019841693508086168417925050509392505050565b6000819050919050565b6000819050919050565b600062000205620001ff620001f984620001d0565b620001da565b620001d0565b9050919050565b6000819050919050565b6200022183620001e4565b6200023962000230826200020c565b8484546200017a565b825550505050565b600090565b6200025062000241565b6200025d81848462000216565b505050565b5b8181101562000285576200027960008262000246565b60018101905062000263565b5050565b601f821115620002d4576200029e8162000148565b620002a9846200015d565b81016020851015620002b9578190505b620002d1620002c8856200015d565b83018262000262565b50505b505050565b600082821c905092915050565b6000620002f960001984600802620002d9565b1980831691505092915050565b6000620003148383620002e6565b9150826002028217905092915050565b6200032f82620000aa565b67ffffffffffffffff8111156200034b576200034a620000b5565b5b62000357825462000113565b6200036482828562000289565b600060209050601f8311600181146200039c576000841562000387578287015190505b62000393858262000306565b86555062000403565b601f198416620003ac8662000148565b60005b82811015620003d657848901518255600182019150602085019450602081019050620003af565b86831015620003f65784890151620003f2601f891682620002e6565b8355505b6001600288020188555050505b505050505050565b6114d1806200041b6000396000f3fe6080604052600436106100a75760003560e01c806370a082311161006457806370a08231146101e457806395d89b4114610221578063a1903eab1461024c578063a457c2d71461027c578063a9059cbb146102b9578063dd62ed3e146102f6576100a7565b806306fdde03146100ac578063095ea7b3146100d757806318160ddd1461011457806323b872dd1461013f578063313ce5671461017c57806339509351146101a7575b600080fd5b3480156100b857600080fd5b506100c1610333565b6040516100ce9190610d42565b60405180910390f35b3480156100e357600080fd5b506100fe60048036038101906100f99190610dfd565b6103c5565b60405161010b9190610e58565b60405180910390f35b34801561012057600080fd5b506101296103e8565b6040516101369190610e82565b60405180910390f35b34801561014b57600080fd5b5061016660048036038101906101619190610e9d565b6103f2565b6040516101739190610e58565b60405180910390f35b34801561018857600080fd5b50610191610421565b60405161019e9190610f0c565b60405180910390f35b3480156101b357600080fd5b506101ce60048036038101906101c99190610dfd565b61042a565b6040516101db9190610e58565b60405180910390f35b3480156101f057600080fd5b5061020b60048036038101906102069190610f27565b610461565b6040516102189190610e82565b60405180910390f35b34801561022d57600080fd5b506102366104a9565b6040516102439190610d42565b60405180910390f35b61026660048036038101906102619190610f27565b61053b565b6040516102739190610e82565b60405180910390f35b34801561028857600080fd5b506102a3600480360381019061029e9190610dfd565b61055e565b6040516102b09190610e58565b60405180910390f35b3480156102c557600080fd5b506102e060048036038101906102db9190610dfd565b6105d5565b6040516102ed9190610e58565b60405180910390f35b34801561030257600080fd5b5061031d60048036038101906103189190610f54565b6105f8565b60405161032a9190610e82565b60405180910390f35b60606003805461034290610fc3565b80601f016020809104026020016040519081016040528092919081815260200182805461036e90610fc3565b80156103bb5780601f10610390576101008083540402835291602001916103bb565b820191906000526020600020905b81548152906001019060200180831161039e57829003601f168201915b5050505050905090565b6000806103d061067f565b90506103dd818585610687565b600191505092915050565b6000600254905090565b6000806103fd61067f565b905061040a858285610850565b6104158585856108dc565b60019150509392505050565b60006012905090565b60008061043561067f565b905061045681858561044785896105f8565b6104519190611023565b610687565b600191505092915050565b60008060008373ffffffffffffffffffffffffffffffffffffffff1673ffffffffffffffffffffffffffffffffffffffff168152602001908152602001600020549050919050565b6060600480546104b890610fc3565b80601f01602080910402602001604051908101604052809291908181526020018280546104e490610fc3565b80156105315780601f1061050657610100808354040283529160200191610531565b820191906000526020600020905b81548152906001019060200180831161051457829003601f168201915b5050505050905090565b60006105593366470de4df820000346105549190611023565b610b52565b919050565b60008061056961067f565b9050600061057782866105f8565b9050838110156105bc576040517f08c379a00000000000000000000000000000000000000000000000000000000081526004016105b3906110c9565b60405180910390fd5b6105c98286868403610687565b60019250505092915050565b6000806105e061067f565b90506105ed8185856108dc565b600191505092915050565b6000600160008473ffffffffffffffffffffffffffffffffffffffff1673ffffffffffffffffffffffffffffffffffffffff16815260200190815260200160002060008373ffffffffffffffffffffffffffffffffffffffff1673ffffffffffffffffffffffffffffffffffffffff16815260200190815260200160002054905092915050565b600033905090565b600073ffffffffffffffffffffffffffffffffffffffff168373ffffffffffffffffffffffffffffffffffffffff16036106f6576040517f08c379a00000000000000000000000000000000000000000000000000000000081526004016106ed9061115b565b60405180910390fd5b600073ffffffffffffffffffffffffffffffffffffffff168273ffffffffffffffffffffffffffffffffffffffff1603610765576040517f08c379a000000000000000000000000000000000000000000000000000000000815260040161075c906111ed565b60405180910390fd5b80600160008573ffffffffffffffffffffffffffffffffffffffff1673ffffffffffffffffffffffffffffffffffffffff16815260200190815260200160002060008473ffffffffffffffffffffffffffffffffffffffff1673ffffffffffffffffffffffffffffffffffffffff168152602001908152602001600020819055508173ffffffffffffffffffffffffffffffffffffffff168373ffffffffffffffffffffffffffffffffffffffff167f8c5be1e5ebec7d5bd14f71427d1e84f3dd0314c0f7b2291e5b200ac8c7c3b925836040516108439190610e82565b60405180910390a3505050565b600061085c84846105f8565b90507fffffffffffffffffffffffffffffffffffffffffffffffffffffffffffffffff81146108d657818110156108c8576040517f08c379a00000000000000000000000000000000000000000000000000000000081526004016108bf90611259565b60405180910390fd5b6108d58484848403610687565b5b50505050565b600073ffffffffffffffffffffffffffffffffffffffff168373ffffffffffffffffffffffffffffffffffffffff160361094b576040517f08c379a0000000000000000000000000000000000000000000000000000000008152600401610942906112eb565b60405180910390fd5b600073ffffffffffffffffffffffffffffffffffffffff168273ffffffffffffffffffffffffffffffffffffffff16036109ba576040517f08c379a00000000000000000000000000000000000000000000000000000000081526004016109b19061137d565b60405180910390fd5b6109c5838383610ca8565b60008060008573ffffffffffffffffffffffffffffffffffffffff1673ffffffffffffffffffffffffffffffffffffffff16815260200190815260200160002054905081811015610a4b576040517f08c379a0000000000000000000000000000000000000000000000000000000008152600401610a429061140f565b60405180910390fd5b8181036000808673ffffffffffffffffffffffffffffffffffffffff1673ffffffffffffffffffffffffffffffffffffffff16815260200190815260200160002081905550816000808573ffffffffffffffffffffffffffffffffffffffff1673ffffffffffffffffffffffffffffffffffffffff168152602001908152602001600020600082825401925050819055508273ffffffffffffffffffffffffffffffffffffffff168473ffffffffffffffffffffffffffffffffffffffff167fddf252ad1be2c89b69c2b068fc378daa952ba7f163c4a11628f55a4df523b3ef84604051610b399190610e82565b60405180910390a3610b4c848484610cad565b50505050565b600073ffffffffffffffffffffffffffffffffffffffff168273ffffffffffffffffffffffffffffffffffffffff1603610bc1576040517f08c379a0000000000000000000000000000000000000000000000000000000008152600401610bb89061147b565b60405180910390fd5b610bcd60008383610ca8565b8060026000828254610bdf9190611023565b92505081905550806000808473ffffffffffffffffffffffffffffffffffffffff1673ffffffffffffffffffffffffffffffffffffffff168152602001908152602001600020600082825401925050819055508173ffffffffffffffffffffffffffffffffffffffff16600073ffffffffffffffffffffffffffffffffffffffff167fddf252ad1be2c89b69c2b068fc378daa952ba7f163c4a11628f55a4df523b3ef83604051610c909190610e82565b60405180910390a3610ca460008383610cad565b5050565b505050565b505050565b600081519050919050565b600082825260208201905092915050565b60005b83811015610cec578082015181840152602081019050610cd1565b60008484015250505050565b6000601f19601f8301169050919050565b6000610d1482610cb2565b610d1e8185610cbd565b9350610d2e818560208601610cce565b610d3781610cf8565b840191505092915050565b60006020820190508181036000830152610d5c8184610d09565b905092915050565b600080fd5b600073ffffffffffffffffffffffffffffffffffffffff82169050919050565b6000610d9482610d69565b9050919050565b610da481610d89565b8114610daf57600080fd5b50565b600081359050610dc181610d9b565b92915050565b6000819050919050565b610dda81610dc7565b8114610de557600080fd5b50565b600081359050610df781610dd1565b92915050565b60008060408385031215610e1457610e13610d64565b5b6000610e2285828601610db2565b9250506020610e3385828601610de8565b9150509250929050565b60008115159050919050565b610e5281610e3d565b82525050565b6000602082019050610e6d6000830184610e49565b92915050565b610e7c81610dc7565b82525050565b6000602082019050610e976000830184610e73565b92915050565b600080600060608486031215610eb657610eb5610d64565b5b6000610ec486828701610db2565b9350506020610ed586828701610db2565b9250506040610ee686828701610de8565b9150509250925092565b600060ff82169050919050565b610f0681610ef0565b82525050565b6000602082019050610f216000830184610efd565b92915050565b600060208284031215610f3d57610f3c610d64565b5b6000610f4b84828501610db2565b91505092915050565b60008060408385031215610f6b57610f6a610d64565b5b6000610f7985828601610db2565b9250506020610f8a85828601610db2565b9150509250929050565b7f4e487b7100000000000000000000000000000000000000000000000000000000600052602260045260246000fd5b60006002820490506001821680610fdb57607f821691505b602082108103610fee57610fed610f94565b5b50919050565b7f4e487b7100000000000000000000000000000000000000000000000000000000600052601160045260246000fd5b600061102e82610dc7565b915061103983610dc7565b925082820190508082111561105157611050610ff4565b5b92915050565b7f45524332303a2064656372656173656420616c6c6f77616e63652062656c6f7760008201527f207a65726f000000000000000000000000000000000000000000000000000000602082015250565b60006110b3602583610cbd565b91506110be82611057565b604082019050919050565b600060208201905081810360008301526110e2816110a6565b9050919050565b7f45524332303a20617070726f76652066726f6d20746865207a65726f2061646460008201527f7265737300000000000000000000000000000000000000000000000000000000602082015250565b6000611145602483610cbd565b9150611150826110e9565b604082019050919050565b6000602082019050818103600083015261117481611138565b9050919050565b7f45524332303a20617070726f766520746f20746865207a65726f20616464726560008201527f7373000000000000000000000000000000000000000000000000000000000000602082015250565b60006111d7602283610cbd565b91506111e28261117b565b604082019050919050565b60006020820190508181036000830152611206816111ca565b9050919050565b7f45524332303a20696e73756666696369656e7420616c6c6f77616e6365000000600082015250565b6000611243601d83610cbd565b915061124e8261120d565b602082019050919050565b6000602082019050818103600083015261127281611236565b9050919050565b7f45524332303a207472616e736665722066726f6d20746865207a65726f20616460008201527f6472657373000000000000000000000000000000000000000000000000000000602082015250565b60006112d5602583610cbd565b91506112e082611279565b604082019050919050565b60006020820190508181036000830152611304816112c8565b9050919050565b7f45524332303a207472616e7366657220746f20746865207a65726f206164647260008201527f6573730000000000000000000000000000000000000000000000000000000000602082015250565b6000611367602383610cbd565b91506113728261130b565b604082019050919050565b600060208201905081810360008301526113968161135a565b9050919050565b7f45524332303a207472616e7366657220616d6f756e742065786365656473206260008201527f616c616e63650000000000000000000000000000000000000000000000000000602082015250565b60006113f9602683610cbd565b91506114048261139d565b604082019050919050565b60006020820190508181036000830152611428816113ec565b9050919050565b7f45524332303a206d696e7420746f20746865207a65726f206164647265737300600082015250565b6000611465601f83610cbd565b91506114708261142f565b602082019050919050565b6000602082019050818103600083015261149481611458565b905091905056fea26469706673582212200d05235aaaf7690e285cae58d166c04bc74eeee6cd268149ab4d3a2538dcad8b64736f6c63430008110033",
  "linkReferences": {},
  "deployedLinkReferences": {}
}