{
  "contractName": "Contacts",
  "abi": [
    {
      "inputs": [],
      "stateMutability": "nonpayable",
      "type": "constructor"
    },
    {
      "inputs": [
        {
          "internalType": "uint256",
          "name": "",
          "type": "uint256"
        }
      ],
      "name": "contacts",
      "outputs": [
        {
          "internalType": "uint256",
          "name": "id",
          "type": "uint256"
        },
        {
          "internalType": "string",
          "name": "name",
          "type": "string"
        },
        {
          "internalType": "string",
          "name": "phone",
          "type": "string"
        }
      ],
      "stateMutability": "view",
      "type": "function",
      "constant": true
    },
    {
      "inputs": [],
      "name": "count",
      "outputs": [
        {
          "internalType": "uint256",
          "name": "",
          "type": "uint256"
        }
      ],
      "stateMutability": "view",
      "type": "function",
      "constant": true
    },
    {
      "inputs": [
        {
          "internalType": "string",
          "name": "_name",
          "type": "string"
        },
        {
          "internalType": "string",
          "name": "_phone",
          "type": "string"
        }
      ],
      "name": "createContact",
      "outputs": [],
      "stateMutability": "nonpayable",
      "type": "function"
    },
    {
      "inputs": [
        {
          "internalType": "uint256",
          "name": "_id",
          "type": "uint256"
        }
      ],
      "name": "deleteContact",
      "outputs": [],
      "stateMutability": "nonpayable",
      "type": "function"
    }
  ],
  "bytecode": "0x60806040526000805534801561001457600080fd5b5061006e6040518060400160405280601081526020016f20b2343934ba102232bb32b637b832b960811b8152506040518060400160405280600981526020016831323331323331323360b81b81525061007360201b60201c565b61026c565b600080549080610082836100e7565b9091555050604080516060810182526000805480835260208084018781528486018790529183526001908190529390912082518155905191929091908201906100cb90826101ad565b50604082015160028201906100e090826101ad565b5050505050565b60006001820161010757634e487b7160e01b600052601160045260246000fd5b5060010190565b634e487b7160e01b600052604160045260246000fd5b600181811c9082168061013857607f821691505b60208210810361015857634e487b7160e01b600052602260045260246000fd5b50919050565b601f8211156101a857600081815260208120601f850160051c810160208610156101855750805b601f850160051c820191505b818110156101a457828155600101610191565b5050505b505050565b81516001600160401b038111156101c6576101c661010e565b6101da816101d48454610124565b8461015e565b602080601f83116001811461020f57600084156101f75750858301515b600019600386901b1c1916600185901b1785556101a4565b600085815260208120601f198616915b8281101561023e5788860151825594840194600190910190840161021f565b508582101561025c5787850151600019600388901b60f8161c191681555b5050505050600190811b01905550565b6106278061027b6000396000f3fe608060405234801561001057600080fd5b506004361061004c5760003560e01c806306661abd146100515780633dce49201461006d578063b9ed6fca14610082578063e0f478cb14610095575b600080fd5b61005a60005481565b6040519081526020015b60405180910390f35b61008061007b36600461038a565b6100b7565b005b6100806100903660046103ee565b61012b565b6100a86100a33660046103ee565b61015f565b6040516100649392919061044d565b6000805490806100c683610482565b90915550506040805160608101825260008054808352602080840187815284860187905291835260019081905293909120825181559051919290919082019061010f9082610531565b50604082015160028201906101249082610531565b5050505050565b60008181526001602081905260408220828155919061014c90830182610291565b61015a600283016000610291565b505050565b600160208190526000918252604090912080549181018054610180906104a9565b80601f01602080910402602001604051908101604052809291908181526020018280546101ac906104a9565b80156101f95780601f106101ce576101008083540402835291602001916101f9565b820191906000526020600020905b8154815290600101906020018083116101dc57829003601f168201915b50505050509080600201805461020e906104a9565b80601f016020809104026020016040519081016040528092919081815260200182805461023a906104a9565b80156102875780601f1061025c57610100808354040283529160200191610287565b820191906000526020600020905b81548152906001019060200180831161026a57829003601f168201915b5050505050905083565b50805461029d906104a9565b6000825580601f106102ad575050565b601f0160209004906000526020600020908101906102cb91906102ce565b50565b5b808211156102e357600081556001016102cf565b5090565b634e487b7160e01b600052604160045260246000fd5b600082601f83011261030e57600080fd5b813567ffffffffffffffff80821115610329576103296102e7565b604051601f8301601f19908116603f01168101908282118183101715610351576103516102e7565b8160405283815286602085880101111561036a57600080fd5b836020870160208301376000602085830101528094505050505092915050565b6000806040838503121561039d57600080fd5b823567ffffffffffffffff808211156103b557600080fd5b6103c1868387016102fd565b935060208501359150808211156103d757600080fd5b506103e4858286016102fd565b9150509250929050565b60006020828403121561040057600080fd5b5035919050565b6000815180845260005b8181101561042d57602081850181015186830182015201610411565b506000602082860101526020601f19601f83011685010191505092915050565b8381526060602082015260006104666060830185610407565b82810360408401526104788185610407565b9695505050505050565b6000600182016104a257634e487b7160e01b600052601160045260246000fd5b5060010190565b600181811c908216806104bd57607f821691505b6020821081036104dd57634e487b7160e01b600052602260045260246000fd5b50919050565b601f82111561015a57600081815260208120601f850160051c8101602086101561050a5750805b601f850160051c820191505b8181101561052957828155600101610516565b505050505050565b815167ffffffffffffffff81111561054b5761054b6102e7565b61055f8161055984546104a9565b846104e3565b602080601f831160018114610594576000841561057c5750858301515b600019600386901b1c1916600185901b178555610529565b600085815260208120601f198616915b828110156105c3578886015182559484019460019091019084016105a4565b50858210156105e15787850151600019600388901b60f8161c191681555b5050505050600190811b0190555056fea2646970667358221220b93641b6a911382c901c52e4f74d3c016b03560541bf45fa7a1e3e7a5e22f4ac64736f6c63430008110033",
  "immutableReferences": {},
  "source": "// SPDX-License-Identifier: MIT \npragma solidity ^0.8.17;\n\ncontract Contacts{\n    uint public count = 0 ; // state variable\n\n    struct Contact {\n        uint id;\n        string name;\n        string phone;\n    }\n\n    constructor()  {\n        createContact('Adhrit Developer','123123123');\n    }   // create constructor visibility abstract\n\n    mapping(uint => Contact) public contacts;\n\n    function createContact(string memory _name, string memory _phone ) public {\n        count++;\n        contacts[count] = Contact(count, _name, _phone);\n    }\n    function deleteContact(uint _id) public {\n        delete contacts[_id];\n    }\n}",
  "sourcePath": "/home/adhrit/Desktop/course/event-app/contracts/contracts/Contacts.sol",
  "compiler": {
    "name": "solc",
    "version": "0.8.17+commit.8df45f5f.Emscripten.clang"
  },
  "schemaVersion": "3.4.11",
  "updatedAt": "2023-02-03T13:31:43.440Z",
  "networkType": "ethereum",
  "devdoc": {
    "kind": "dev",
    "methods": {},
    "version": 1
  },
  "userdoc": {
    "kind": "user",
    "methods": {},
    "version": 1
  }
}