{
  "_format": "hh-sol-artifact-1",
  "contractName": "GiveForever",
  "sourceName": "contracts/GiveForever.sol",
  "abi": [
    {
      "inputs": [
        {
          "internalType": "address",
          "name": "_charityAddress",
          "type": "address"
        },
        {
          "internalType": "address",
          "name": "_lidoAddress",
          "type": "address"
        }
      ],
      "stateMutability": "nonpayable",
      "type": "constructor"
    },
    {
      "inputs": [],
      "name": "charity",
      "outputs": [
        {
          "internalType": "address",
          "name": "",
          "type": "address"
        }
      ],
      "stateMutability": "view",
      "type": "function"
    },
    {
      "inputs": [],
      "name": "deposit",
      "outputs": [],
      "stateMutability": "payable",
      "type": "function"
    },
    {
      "inputs": [],
      "name": "donated",
      "outputs": [
        {
          "internalType": "uint256",
          "name": "",
          "type": "uint256"
        }
      ],
      "stateMutability": "view",
      "type": "function"
    },
    {
      "inputs": [],
      "name": "lidoAddress",
      "outputs": [
        {
          "internalType": "address",
          "name": "",
          "type": "address"
        }
      ],
      "stateMutability": "view",
      "type": "function"
    },
    {
      "inputs": [],
      "name": "lidoBalance",
      "outputs": [
        {
          "internalType": "uint256",
          "name": "",
          "type": "uint256"
        }
      ],
      "stateMutability": "view",
      "type": "function"
    },
    {
      "inputs": [
        {
          "internalType": "address",
          "name": "_newAddress",
          "type": "address"
        }
      ],
      "name": "updateWallet",
      "outputs": [],
      "stateMutability": "nonpayable",
      "type": "function"
    },
    {
      "inputs": [],
      "name": "withdraw",
      "outputs": [],
      "stateMutability": "nonpayable",
      "type": "function"
    }
  ],
  "bytecode": "0x608060405234801561001057600080fd5b50604051610a9b380380610a9b8339818101604052810190610032919061011d565b816000806101000a81548173ffffffffffffffffffffffffffffffffffffffff021916908373ffffffffffffffffffffffffffffffffffffffff16021790555080600160006101000a81548173ffffffffffffffffffffffffffffffffffffffff021916908373ffffffffffffffffffffffffffffffffffffffff160217905550505061015d565b600080fd5b600073ffffffffffffffffffffffffffffffffffffffff82169050919050565b60006100ea826100bf565b9050919050565b6100fa816100df565b811461010557600080fd5b50565b600081519050610117816100f1565b92915050565b60008060408385031215610134576101336100ba565b5b600061014285828601610108565b925050602061015385828601610108565b9150509250929050565b61092f8061016c6000396000f3fe6080604052600436106100705760003560e01c8063848b86e31161004e578063848b86e3146100e2578063934aa0231461010b578063a34bc47714610136578063d0e30db01461016157610070565b80633ccfd60b14610075578063639bbb371461008c57806369571ba1146100b7575b600080fd5b34801561008157600080fd5b5061008a61016b565b005b34801561009857600080fd5b506100a1610325565b6040516100ae91906105bd565b60405180910390f35b3480156100c357600080fd5b506100cc61032b565b6040516100d99190610619565b60405180910390f35b3480156100ee57600080fd5b5061010960048036038101906101049190610665565b610351565b005b34801561011757600080fd5b50610120610422565b60405161012d9190610619565b60405180910390f35b34801561014257600080fd5b5061014b610446565b60405161015891906105bd565b60405180910390f35b6101696104e9565b005b6000600160009054906101000a900473ffffffffffffffffffffffffffffffffffffffff1673ffffffffffffffffffffffffffffffffffffffff166370a08231306040518263ffffffff1660e01b81526004016101c89190610619565b602060405180830381865afa1580156101e5573d6000803e3d6000fd5b505050506040513d601f19601f8201168201806040525081019061020991906106be565b905060006002548261021b919061071a565b905060008111610260576040517f08c379a0000000000000000000000000000000000000000000000000000000008152600401610257906107ab565b60405180910390fd5b600160009054906101000a900473ffffffffffffffffffffffffffffffffffffffff1673ffffffffffffffffffffffffffffffffffffffff1663a9059cbb60008054906101000a900473ffffffffffffffffffffffffffffffffffffffff16836040518363ffffffff1660e01b81526004016102dd9291906107cb565b6020604051808303816000875af11580156102fc573d6000803e3d6000fd5b505050506040513d601f19601f82011682018060405250810190610320919061082c565b505050565b60025481565b600160009054906101000a900473ffffffffffffffffffffffffffffffffffffffff1681565b60008054906101000a900473ffffffffffffffffffffffffffffffffffffffff1673ffffffffffffffffffffffffffffffffffffffff163373ffffffffffffffffffffffffffffffffffffffff16146103df576040517f08c379a00000000000000000000000000000000000000000000000000000000081526004016103d6906108a5565b60405180910390fd5b806000806101000a81548173ffffffffffffffffffffffffffffffffffffffff021916908373ffffffffffffffffffffffffffffffffffffffff16021790555050565b60008054906101000a900473ffffffffffffffffffffffffffffffffffffffff1681565b6000600160009054906101000a900473ffffffffffffffffffffffffffffffffffffffff1673ffffffffffffffffffffffffffffffffffffffff166370a08231306040518263ffffffff1660e01b81526004016104a39190610619565b602060405180830381865afa1580156104c0573d6000803e3d6000fd5b505050506040513d601f19601f820116820180604052508101906104e491906106be565b905090565b600160009054906101000a900473ffffffffffffffffffffffffffffffffffffffff1673ffffffffffffffffffffffffffffffffffffffff1663a1903eab34306040518363ffffffff1660e01b81526004016105459190610619565b60206040518083038185885af1158015610563573d6000803e3d6000fd5b50505050506040513d601f19601f8201168201806040525081019061058891906106be565b50346002600082825461059b91906108c5565b92505081905550565b6000819050919050565b6105b7816105a4565b82525050565b60006020820190506105d260008301846105ae565b92915050565b600073ffffffffffffffffffffffffffffffffffffffff82169050919050565b6000610603826105d8565b9050919050565b610613816105f8565b82525050565b600060208201905061062e600083018461060a565b92915050565b600080fd5b610642816105f8565b811461064d57600080fd5b50565b60008135905061065f81610639565b92915050565b60006020828403121561067b5761067a610634565b5b600061068984828501610650565b91505092915050565b61069b816105a4565b81146106a657600080fd5b50565b6000815190506106b881610692565b92915050565b6000602082840312156106d4576106d3610634565b5b60006106e2848285016106a9565b91505092915050565b7f4e487b7100000000000000000000000000000000000000000000000000000000600052601160045260246000fd5b6000610725826105a4565b9150610730836105a4565b9250828203905081811115610748576107476106eb565b5b92915050565b600082825260208201905092915050565b7f4e6f7468696e6720746f2072657475726e000000000000000000000000000000600082015250565b600061079560118361074e565b91506107a08261075f565b602082019050919050565b600060208201905081810360008301526107c481610788565b9050919050565b60006040820190506107e0600083018561060a565b6107ed60208301846105ae565b9392505050565b60008115159050919050565b610809816107f4565b811461081457600080fd5b50565b60008151905061082681610800565b92915050565b60006020828403121561084257610841610634565b5b600061085084828501610817565b91505092915050565b7f4f6e6c7920636861726974792063616e207570646174652077616c6c65740000600082015250565b600061088f601e8361074e565b915061089a82610859565b602082019050919050565b600060208201905081810360008301526108be81610882565b9050919050565b60006108d0826105a4565b91506108db836105a4565b92508282019050808211156108f3576108f26106eb565b5b9291505056fea26469706673582212204b11053d606916e82eccbf5ba75a8192bd400a14e0fb1bfe2df2178405c0798764736f6c63430008110033",
  "linkReferences": {},
  "deployedLinkReferences": {}
}